{"address":"0x9fE46736679d2D9a65F0992F2272dE9f3c7fa6e0","bytecode":"0x608060405234801561001057600080fd5b5061404c806100206000396000f3fe608060405234801561001057600080fd5b50600436106100415760003560e01c806388bc267f146100465780638f26709714610064578063a715a15414610082575b600080fd5b61004e6100b2565b60405161005b919061021a565b60405180910390f35b61006c610181565b604051610079919061024e565b60405180910390f35b61009c6004803603810190610097919061029a565b61018d565b6040516100a9919061021a565b60405180910390f35b6000806040516100c1906101cc565b604051809103906000f0801580156100dd573d6000803e3d6000fd5b5090508091506000829080600181540180825580915050600190039060005260206000200160009091909190916101000a81548173ffffffffffffffffffffffffffffffffffffffff021916908373ffffffffffffffffffffffffffffffffffffffff1602179055507f7407cac6a69682f4e98288f0fcc3db4b5472565d66fbed36b8fd46360790527b82604051610175919061021a565b60405180910390a15090565b60008080549050905090565b6000818154811061019d57600080fd5b906000526020600020016000915054906101000a900473ffffffffffffffffffffffffffffffffffffffff1681565b613d4f806102c883390190565b600073ffffffffffffffffffffffffffffffffffffffff82169050919050565b6000610204826101d9565b9050919050565b610214816101f9565b82525050565b600060208201905061022f600083018461020b565b92915050565b6000819050919050565b61024881610235565b82525050565b6000602082019050610263600083018461023f565b92915050565b600080fd5b61027781610235565b811461028257600080fd5b50565b6000813590506102948161026e565b92915050565b6000602082840312156102b0576102af610269565b5b60006102be84828501610285565b9150509291505056fe60806040523480156200001157600080fd5b50604051620000209062000083565b604051809103906000f0801580156200003d573d6000803e3d6000fd5b506000806101000a81548173ffffffffffffffffffffffffffffffffffffffff021916908373ffffffffffffffffffffffffffffffffffffffff16021790555062000091565b61066d80620036e283390190565b61364180620000a16000396000f3fe608060405234801561001057600080fd5b50600436106101dc5760003560e01c8063ae93625111610105578063d7b69e3b1161009d578063d7b69e3b14610587578063ddf363d7146105a3578063dea75ba2146105c1578063df568cda146105df578063e28d4906146105fb578063e69919ae1461062b578063e72132d714610649578063f26c917814610667578063f3f8d4e314610683576101dc565b8063ae93625114610449578063b0757f8f14610479578063b7ce9b99146104a9578063bcf80c9d146104c5578063bddb783d146104e1578063c498148e146104ff578063c860ebc61461052f578063cdbeeec41461054d578063d737d0c714610569576101dc565b80635bf3e5d7116101785780635bf3e5d71461031f5780635f390d9b1461034f5780637823a2b81461036d57806393cbbbfc1461039d5780639f6f63a0146103b9578063a55b09ff146103d7578063a62c4a5e146103f3578063a62fb6861461040f578063adfd49cf1461042b576101dc565b8063138ef151146101e15780631c5cf2e5146101ff5780632941a5d61461020957806337df3a36146102395780633be6822d146102695780633cb9ceff1461028557806346972dbe146102b55780634afd51ea146102d3578063592e9831146102ef575b600080fd5b6101e96106b3565b6040516101f69190612802565b60405180910390f35b6102076106d7565b005b610223600480360381019061021e9190612867565b61162c565b6040516102309190612940565b60405180910390f35b610253600480360381019061024e91906129ba565b611749565b6040516102609190612a22565b60405180910390f35b610283600480360381019061027e9190612a7b565b611769565b005b61029f600480360381019061029a9190612bdd565b6117ad565b6040516102ac9190612a22565b60405180910390f35b6102bd6117e3565b6040516102ca9190612c35565b60405180910390f35b6102ed60048036038101906102e89190612c50565b611809565b005b610309600480360381019061030491906129ba565b611813565b6040516103169190612cf4565b60405180910390f35b61033960048036038101906103349190612d0f565b611833565b6040516103469190612d96565b60405180910390f35b61035761188e565b6040516103649190612dc0565b60405180910390f35b61038760048036038101906103829190612bdd565b61189b565b6040516103949190612e30565b60405180910390f35b6103b760048036038101906103b29190612ea3565b611951565b005b6103c1611ca6565b6040516103ce9190612c35565b60405180910390f35b6103f160048036038101906103ec9190612c50565b611ccc565b005b61040d60048036038101906104089190612a7b565b611ce8565b005b61042960048036038101906104249190612a7b565b611d2c565b005b610433611d70565b6040516104409190612c35565b60405180910390f35b610463600480360381019061045e9190612bdd565b611d96565b6040516104709190612dc0565b60405180910390f35b610493600480360381019061048e9190612f3a565b611dc4565b6040516104a09190612a22565b60405180910390f35b6104c360048036038101906104be9190612a7b565b611e09565b005b6104df60048036038101906104da9190613037565b611ebf565b005b6104e9611ee3565b6040516104f69190612c35565b60405180910390f35b610519600480360381019061051491906130e0565b611f09565b6040516105269190612940565b60405180910390f35b610537611fba565b6040516105449190612940565b60405180910390f35b61056760048036038101906105629190612c50565b612048565b005b610571612052565b60405161057e9190612c35565b60405180910390f35b6105a1600480360381019061059c9190612a7b565b612078565b005b6105ab61212e565b6040516105b89190612dc0565b60405180910390f35b6105c9612134565b6040516105d69190612dc0565b60405180910390f35b6105f960048036038101906105f49190612a7b565b61213a565b005b61061560048036038101906106109190612c50565b61217e565b6040516106229190612e30565b60405180910390f35b61063361222a565b6040516106409190612dc0565b60405180910390f35b610651612230565b60405161065e9190612c35565b60405180910390f35b610681600480360381019061067c9190612c50565b612256565b005b61069d60048036038101906106989190612bdd565b612260565b6040516106aa9190612d96565b60405180910390f35b60008054906101000a900473ffffffffffffffffffffffffffffffffffffffff1681565b61072b6040518060400160405280600281526020017f3d3d000000000000000000000000000000000000000000000000000000000000815250600160f81b63a862eb3a60e01b600060e01b60006001612296565b61077f6040518060400160405280600281526020017f213d000000000000000000000000000000000000000000000000000000000000815250601460f81b63932b644e60e01b600060e01b60006001612296565b6107d36040518060400160405280600181526020017f3c00000000000000000000000000000000000000000000000000000000000000815250600360f81b63eda2de8060e01b600060e01b60006001612296565b6108276040518060400160405280600181526020017f3e00000000000000000000000000000000000000000000000000000000000000815250600460f81b6385b98d0160e01b600060e01b60006001612296565b61087b6040518060400160405280600281526020017f3c3d000000000000000000000000000000000000000000000000000000000000815250600660f81b6308061bf560e01b600060e01b60006001612296565b6108cf6040518060400160405280600281526020017f3e3d000000000000000000000000000000000000000000000000000000000000815250600760f81b63aa6dbce960e01b600060e01b60006001612296565b6109236040518060400160405280600481526020017f7377617000000000000000000000000000000000000000000000000000000000815250600560f81b6308a5688060e01b600060e01b60006003612296565b6109776040518060400160405280600181526020017f2100000000000000000000000000000000000000000000000000000000000000815250600260f81b63a046e39f60e01b600060e01b60006004612296565b6109cb6040518060400160405280600381526020017f616e640000000000000000000000000000000000000000000000000000000000815250601260f81b632e71887560e01b600060e01b60026003612296565b610a1e6040518060400160405280600381526020017f786f720000000000000000000000000000000000000000000000000000000000815250601160f81b638fb84cf960e01b600060e01b600280612296565b610a716040518060400160405280600281526020017f6f72000000000000000000000000000000000000000000000000000000000000815250601360f81b637752678360e01b600060e01b600280612296565b610ac46040518060400160405280600181526020017f2b00000000000000000000000000000000000000000000000000000000000000815250602660f81b63ed278a9860e01b600060e01b600280612296565b610b176040518060400160405280600181526020017f2d00000000000000000000000000000000000000000000000000000000000000815250602760f81b63bfc0085260e01b600060e01b600280612296565b610b6b6040518060400160405280600181526020017f2a00000000000000000000000000000000000000000000000000000000000000815250602860f81b63acd2912660e01b600060e01b60026003612296565b610bbf6040518060400160405280600181526020017f2f00000000000000000000000000000000000000000000000000000000000000815250602960f81b633f65819760e01b600060e01b60026003612296565b610c146040518060400160405280600681526020017f6966656c73650000000000000000000000000000000000000000000000000000815250602360f81b636afad9df60e01b63be1d121160e01b6001611951565b610c696040518060400160405280600281526020017f6966000000000000000000000000000000000000000000000000000000000000815250602560f81b63313b73e260e01b63f71c692a60e01b6001611951565b610cbb6040518060400160405280600381526020017f656e640000000000000000000000000000000000000000000000000000000000815250602460f81b63b051420360e01b600060e01b6001611951565b610d0d6040518060400160405280600681526020017f6272616e63680000000000000000000000000000000000000000000000000000815250602f60f81b63b051420360e01b600060e01b6001611951565b610d5f6040518060400160405280600b81526020017f626c6f636b4e756d626572000000000000000000000000000000000000000000815250601560f81b6368b2501260e01b600060e01b6003611951565b610db16040518060400160405280600481526020017f54494d4500000000000000000000000000000000000000000000000000000000815250601660f81b639aee175160e01b600060e01b6003611951565b610e036040518060400160405280600c81526020017f626c6f636b436861696e49640000000000000000000000000000000000000000815250601760f81b63bacb0a9560e01b600060e01b6003611951565b610e586040518060400160405280600481526020017f626f6f6c00000000000000000000000000000000000000000000000000000000815250601860f81b63a7e49eea60e01b637d4bb2ec60e01b6003611951565b610ead6040518060400160405280600781526020017f75696e7432353600000000000000000000000000000000000000000000000000815250601a60f81b63efe4974660e01b630b91bffc60e01b6003611951565b610eff6040518060400160405280600981526020017f6d736753656e6465720000000000000000000000000000000000000000000000815250601d60f81b63e95c2f1860e01b600060e01b6003611951565b610f546040518060400160405280600781526020017f73656e6445746800000000000000000000000000000000000000000000000000815250601e60f81b63a35d468360e01b63ea80bd5560e01b6003611951565b610fa96040518060400160405280600881526020017f7472616e73666572000000000000000000000000000000000000000000000000815250601f60f81b6331e9971c60e01b63548e07c560e01b6003611951565b610ffe6040518060400160405280600b81526020017f7472616e73666572566172000000000000000000000000000000000000000000815250602c60f81b634b146abe60e01b633635664660e01b6003611951565b6110536040518060400160405280600c81526020017f7472616e7366657246726f6d0000000000000000000000000000000000000000815250602060f81b6350ffe43260e01b63dff9ffc460e01b6003611951565b6110a86040518060400160405280600f81526020017f7472616e7366657246726f6d5661720000000000000000000000000000000000815250602a60f81b63669f4f9360e01b63ffaeef8d60e01b6003611951565b6110fd6040518060400160405280600c81526020017f7365744c6f63616c426f6f6c0000000000000000000000000000000000000000815250602160f81b63b881903160e01b6346b0a4f060e01b6003611951565b6111526040518060400160405280600f81526020017f7365744c6f63616c55696e743235360000000000000000000000000000000000815250602d60f81b634c588eb960e01b63072fa70b60e01b6003611951565b6111a76040518060400160405280600a81526020017f73657455696e7432353600000000000000000000000000000000000000000000815250602e60f81b63a8b7def460e01b63e4bd0c0760e01b6003611951565b6111f96040518060400160405280600881526020017f6d736756616c7565000000000000000000000000000000000000000000000000815250602260f81b63189c68d160e01b600060e01b6003611951565b61124e6040518060400160405280600981526020017f62616c616e63654f660000000000000000000000000000000000000000000000815250602b60f81b632957e0ac60e01b6360fad1ed60e01b6003611951565b6112a36040518060400160405280600481526020017f66756e6300000000000000000000000000000000000000000000000000000000815250603060f81b63a31576c360e01b63cf7f7ff460e01b6001611951565b60006040518060400160405280600981526020017f6c6f61644c6f63616c000000000000000000000000000000000000000000000081525090506112fd81601b60f81b63dc04cef860e01b63357bf0fb60e01b6003611951565b611349816040518060400160405280600781526020017f75696e7432353600000000000000000000000000000000000000000000000000815250600160f81b63e742fc9d60e01b6122b5565b611395816040518060400160405280600481526020017f626f6f6c00000000000000000000000000000000000000000000000000000000815250600260f81b63ffc447c860e01b6122b5565b6113e1816040518060400160405280600781526020017f6164647265737300000000000000000000000000000000000000000000000000815250600360f81b63b949dc1c60e01b6122b5565b61142d816040518060400160405280600781526020017f6279746573333200000000000000000000000000000000000000000000000000815250600460f81b6367cff50960e01b6122b5565b6040518060400160405280600a81526020017f6c6f616452656d6f746500000000000000000000000000000000000000000000815250905061148581601c60f81b638522394160e01b634a6cc8a660e01b6003611951565b6114d1816040518060400160405280600781526020017f75696e7432353600000000000000000000000000000000000000000000000000815250600160f81b632c2ac22f60e01b6122b5565b61151d816040518060400160405280600481526020017f626f6f6c00000000000000000000000000000000000000000000000000000000815250600260f81b633bd13fe160e01b6122b5565b611569816040518060400160405280600781526020017f6164647265737300000000000000000000000000000000000000000000000000815250600360f81b638a65e53060e01b6122b5565b6115b5816040518060400160405280600781526020017f6279746573333200000000000000000000000000000000000000000000000000815250600460f81b6352b03ead60e01b6122b5565b6116296040518060400160405280600481526020017f54494d45000000000000000000000000000000000000000000000000000000008152506040518060400160405280600e81526020017f626c6f636b54696d657374616d700000000000000000000000000000000000008152506125c0565b50565b606060006001805461163d90613183565b80601f016020809104026020016040519081016040528092919081815260200182805461166990613183565b80156116b65780601f1061168b576101008083540402835291602001916116b6565b820191906000526020600020905b81548152906001019060200180831161169957829003601f168201915b505050505090503073ffffffffffffffffffffffffffffffffffffffff1663c498148e8286866040518463ffffffff1660e01b81526004016116fa939291906131b5565b600060405180830381865afa158015611717573d6000803e3d6000fd5b505050506040513d6000823e3d601f19601f820116820180604052508101906117409190613263565b91505092915050565b600c6020528060005260406000206000915054906101000a900460e01b81565b80600860006101000a81548173ffffffffffffffffffffffffffffffffffffffff021916908373ffffffffffffffffffffffffffffffffffffffff16021790555050565b600e818051602081018201805184825260208301602085012081835280955050505050506000915054906101000a900460e01b81565b600660009054906101000a900473ffffffffffffffffffffffffffffffffffffffff1681565b8060038190555050565b600d6020528060005260406000206000915054906101000a900460ff1681565b601282805160208101820180518482526020830160208501208183528095505050505050818051602081018201805184825260208301602085012081835280955050505050506000915091509054906101000a900460f81b81565b6000601080549050905090565b60138180516020810182018051848252602083016020850120818352809550505050505060009150905080546118d090613183565b80601f01602080910402602001604051908101604052809291908181526020018280546118fc90613183565b80156119495780601f1061191e57610100808354040283529160200191611949565b820191906000526020600020905b81548152906001019060200180831161192c57829003601f168201915b505050505081565b600060e01b7bffffffffffffffffffffffffffffffffffffffffffffffffffffffff1916837bffffffffffffffffffffffffffffffffffffffffffffffffffffffff191614156119d6576040517f08c379a00000000000000000000000000000000000000000000000000000000081526004016119cd906132f8565b60405180910390fd5b600060f81b7effffffffffffffffffffffffffffffffffffffffffffffffffffffffffffff1916600b86604051611a0d9190613354565b908152602001604051809103902060009054906101000a900460f81b7effffffffffffffffffffffffffffffffffffffffffffffffffffffffffffff1916148015611afd5750600060e01b7bffffffffffffffffffffffffffffffffffffffffffffffffffffffff1916600c6000867effffffffffffffffffffffffffffffffffffffffffffffffffffffffffffff19167effffffffffffffffffffffffffffffffffffffffffffffffffffffffffffff1916815260200190815260200160002060009054906101000a900460e01b7bffffffffffffffffffffffffffffffffffffffffffffffffffffffff1916145b611b3c576040517f08c379a0000000000000000000000000000000000000000000000000000000008152600401611b33906133dd565b60405180910390fd5b83600b86604051611b4d9190613354565b908152602001604051809103902060006101000a81548160ff021916908360f81c021790555082600c6000867effffffffffffffffffffffffffffffffffffffffffffffffffffffffffffff19167effffffffffffffffffffffffffffffffffffffffffffffffffffffffffffff1916815260200190815260200160002060006101000a81548163ffffffff021916908360e01c021790555080600d6000867effffffffffffffffffffffffffffffffffffffffffffffffffffffffffffff19167effffffffffffffffffffffffffffffffffffffffffffffffffffffffffffff1916815260200190815260200160002060006101000a81548160ff02191690836003811115611c6057611c5f612c7d565b5b021790555081600e86604051611c769190613354565b908152602001604051809103902060006101000a81548163ffffffff021916908360e01c02179055505050505050565b600760009054906101000a900473ffffffffffffffffffffffffffffffffffffffff1681565b8060026000828254611cde919061342c565b9250508190555050565b80600760006101000a81548173ffffffffffffffffffffffffffffffffffffffff021916908373ffffffffffffffffffffffffffffffffffffffff16021790555050565b80600960006101000a81548173ffffffffffffffffffffffffffffffffffffffff021916908373ffffffffffffffffffffffffffffffffffffffff16021790555050565b600860009054906101000a900473ffffffffffffffffffffffffffffffffffffffff1681565b600f818051602081018201805184825260208301602085012081835280955050505050506000915090505481565b6011828051602081018201805184825260208301602085012081835280955050505050506020528060005260406000206000915091509054906101000a900460e01b81565b80600073ffffffffffffffffffffffffffffffffffffffff168173ffffffffffffffffffffffffffffffffffffffff161415611e7a576040517f08c379a0000000000000000000000000000000000000000000000000000000008152600401611e71906134ce565b60405180910390fd5b81600560006101000a81548173ffffffffffffffffffffffffffffffffffffffff021916908373ffffffffffffffffffffffffffffffffffffffff1602179055505050565b8060019080519060200190611ed592919061265a565b50611ee06000612256565b50565b600960009054906101000a900473ffffffffffffffffffffffffffffffffffffffff1681565b6060828585905011611f50576040517f08c379a0000000000000000000000000000000000000000000000000000000008152600401611f479061353a565b60405180910390fd5b848484908486611f60919061342c565b92611f6d93929190613564565b8080601f016020809104026020016040519081016040528093929190818152602001838380828437600081840152601f19601f820116905080830192505050505050509050949350505050565b60018054611fc790613183565b80601f0160208091040260200160405190810160405280929190818152602001828054611ff390613183565b80156120405780601f1061201557610100808354040283529160200191612040565b820191906000526020600020905b81548152906001019060200180831161202357829003601f168201915b505050505081565b80600a8190555050565b600560009054906101000a900473ffffffffffffffffffffffffffffffffffffffff1681565b80600073ffffffffffffffffffffffffffffffffffffffff168173ffffffffffffffffffffffffffffffffffffffff1614156120e9576040517f08c379a00000000000000000000000000000000000000000000000000000000081526004016120e0906134ce565b60405180910390fd5b81600460006101000a81548173ffffffffffffffffffffffffffffffffffffffff021916908373ffffffffffffffffffffffffffffffffffffffff1602179055505050565b600a5481565b60035481565b80600660006101000a81548173ffffffffffffffffffffffffffffffffffffffff021916908373ffffffffffffffffffffffffffffffffffffffff16021790555050565b6010818154811061218e57600080fd5b9060005260206000200160009150905080546121a990613183565b80601f01602080910402602001604051908101604052809291908181526020018280546121d590613183565b80156122225780601f106121f757610100808354040283529160200191612222565b820191906000526020600020905b81548152906001019060200180831161220557829003601f168201915b505050505081565b60025481565b600460009054906101000a900473ffffffffffffffffffffffffffffffffffffffff1681565b8060028190555050565b600b818051602081018201805184825260208301602085012081835280955050505050506000915054906101000a900460f81b81565b6122a38686868686611951565b6122ad86826125f7565b505050505050565b600060e01b7bffffffffffffffffffffffffffffffffffffffffffffffffffffffff1916817bffffffffffffffffffffffffffffffffffffffffffffffffffffffff1916141561233a576040517f08c379a0000000000000000000000000000000000000000000000000000000008152600401612331906132f8565b60405180910390fd5b600060e01b7bffffffffffffffffffffffffffffffffffffffffffffffffffffffff191660118560405161236e9190613354565b90815260200160405180910390206000847effffffffffffffffffffffffffffffffffffffffffffffffffffffffffffff19167effffffffffffffffffffffffffffffffffffffffffffffffffffffffffffff1916815260200190815260200160002060009054906101000a900460e01b7bffffffffffffffffffffffffffffffffffffffffffffffffffffffff19161480156124995750600060f81b7effffffffffffffffffffffffffffffffffffffffffffffffffffffffffffff191660128560405161243d9190613354565b9081526020016040518091039020846040516124599190613354565b908152602001604051809103902060009054906101000a900460f81b7effffffffffffffffffffffffffffffffffffffffffffffffffffffffffffff1916145b6124d8576040517f08c379a00000000000000000000000000000000000000000000000000000000081526004016124cf906135eb565b60405180910390fd5b806011856040516124e99190613354565b90815260200160405180910390206000847effffffffffffffffffffffffffffffffffffffffffffffffffffffffffffff19167effffffffffffffffffffffffffffffffffffffffffffffffffffffffffffff1916815260200190815260200160002060006101000a81548163ffffffff021916908360e01c0217905550816012856040516125789190613354565b9081526020016040518091039020846040516125949190613354565b908152602001604051809103902060006101000a81548160ff021916908360f81c021790555050505050565b816013826040516125d19190613354565b908152602001604051809103902090805190602001906125f29291906126e0565b505050565b80600f836040516126089190613354565b9081526020016040518091039020819055506010829080600181540180825580915050600190039060005260206000200160009091909190915090805190602001906126559291906126e0565b505050565b82805461266690613183565b90600052602060002090601f01602090048101928261268857600085556126cf565b82601f106126a157805160ff19168380011785556126cf565b828001600101855582156126cf579182015b828111156126ce5782518255916020019190600101906126b3565b5b5090506126dc9190612766565b5090565b8280546126ec90613183565b90600052602060002090601f01602090048101928261270e5760008555612755565b82601f1061272757805160ff1916838001178555612755565b82800160010185558215612755579182015b82811115612754578251825591602001919060010190612739565b5b5090506127629190612766565b5090565b5b8082111561277f576000816000905550600101612767565b5090565b600073ffffffffffffffffffffffffffffffffffffffff82169050919050565b6000819050919050565b60006127c86127c36127be84612783565b6127a3565b612783565b9050919050565b60006127da826127ad565b9050919050565b60006127ec826127cf565b9050919050565b6127fc816127e1565b82525050565b600060208201905061281760008301846127f3565b92915050565b6000604051905090565b600080fd5b600080fd5b6000819050919050565b61284481612831565b811461284f57600080fd5b50565b6000813590506128618161283b565b92915050565b6000806040838503121561287e5761287d612827565b5b600061288c85828601612852565b925050602061289d85828601612852565b9150509250929050565b600081519050919050565b600082825260208201905092915050565b60005b838110156128e15780820151818401526020810190506128c6565b838111156128f0576000848401525b50505050565b6000601f19601f8301169050919050565b6000612912826128a7565b61291c81856128b2565b935061292c8185602086016128c3565b612935816128f6565b840191505092915050565b6000602082019050818103600083015261295a8184612907565b905092915050565b60007fff0000000000000000000000000000000000000000000000000000000000000082169050919050565b61299781612962565b81146129a257600080fd5b50565b6000813590506129b48161298e565b92915050565b6000602082840312156129d0576129cf612827565b5b60006129de848285016129a5565b91505092915050565b60007fffffffff0000000000000000000000000000000000000000000000000000000082169050919050565b612a1c816129e7565b82525050565b6000602082019050612a376000830184612a13565b92915050565b6000612a4882612783565b9050919050565b612a5881612a3d565b8114612a6357600080fd5b50565b600081359050612a7581612a4f565b92915050565b600060208284031215612a9157612a90612827565b5b6000612a9f84828501612a66565b91505092915050565b600080fd5b600080fd5b7f4e487b7100000000000000000000000000000000000000000000000000000000600052604160045260246000fd5b612aea826128f6565b810181811067ffffffffffffffff82111715612b0957612b08612ab2565b5b80604052505050565b6000612b1c61281d565b9050612b288282612ae1565b919050565b600067ffffffffffffffff821115612b4857612b47612ab2565b5b612b51826128f6565b9050602081019050919050565b82818337600083830152505050565b6000612b80612b7b84612b2d565b612b12565b905082815260208101848484011115612b9c57612b9b612aad565b5b612ba7848285612b5e565b509392505050565b600082601f830112612bc457612bc3612aa8565b5b8135612bd4848260208601612b6d565b91505092915050565b600060208284031215612bf357612bf2612827565b5b600082013567ffffffffffffffff811115612c1157612c1061282c565b5b612c1d84828501612baf565b91505092915050565b612c2f81612a3d565b82525050565b6000602082019050612c4a6000830184612c26565b92915050565b600060208284031215612c6657612c65612827565b5b6000612c7484828501612852565b91505092915050565b7f4e487b7100000000000000000000000000000000000000000000000000000000600052602160045260246000fd5b60048110612cbd57612cbc612c7d565b5b50565b6000819050612cce82612cac565b919050565b6000612cde82612cc0565b9050919050565b612cee81612cd3565b82525050565b6000602082019050612d096000830184612ce5565b92915050565b60008060408385031215612d2657612d25612827565b5b600083013567ffffffffffffffff811115612d4457612d4361282c565b5b612d5085828601612baf565b925050602083013567ffffffffffffffff811115612d7157612d7061282c565b5b612d7d85828601612baf565b9150509250929050565b612d9081612962565b82525050565b6000602082019050612dab6000830184612d87565b92915050565b612dba81612831565b82525050565b6000602082019050612dd56000830184612db1565b92915050565b600081519050919050565b600082825260208201905092915050565b6000612e0282612ddb565b612e0c8185612de6565b9350612e1c8185602086016128c3565b612e25816128f6565b840191505092915050565b60006020820190508181036000830152612e4a8184612df7565b905092915050565b612e5b816129e7565b8114612e6657600080fd5b50565b600081359050612e7881612e52565b92915050565b60048110612e8b57600080fd5b50565b600081359050612e9d81612e7e565b92915050565b600080600080600060a08688031215612ebf57612ebe612827565b5b600086013567ffffffffffffffff811115612edd57612edc61282c565b5b612ee988828901612baf565b9550506020612efa888289016129a5565b9450506040612f0b88828901612e69565b9350506060612f1c88828901612e69565b9250506080612f2d88828901612e8e565b9150509295509295909350565b60008060408385031215612f5157612f50612827565b5b600083013567ffffffffffffffff811115612f6f57612f6e61282c565b5b612f7b85828601612baf565b9250506020612f8c858286016129a5565b9150509250929050565b600067ffffffffffffffff821115612fb157612fb0612ab2565b5b612fba826128f6565b9050602081019050919050565b6000612fda612fd584612f96565b612b12565b905082815260208101848484011115612ff657612ff5612aad565b5b613001848285612b5e565b509392505050565b600082601f83011261301e5761301d612aa8565b5b813561302e848260208601612fc7565b91505092915050565b60006020828403121561304d5761304c612827565b5b600082013567ffffffffffffffff81111561306b5761306a61282c565b5b61307784828501613009565b91505092915050565b600080fd5b600080fd5b60008083601f8401126130a05761309f612aa8565b5b8235905067ffffffffffffffff8111156130bd576130bc613080565b5b6020830191508360018202830111156130d9576130d8613085565b5b9250929050565b600080600080606085870312156130fa576130f9612827565b5b600085013567ffffffffffffffff8111156131185761311761282c565b5b6131248782880161308a565b9450945050602061313787828801612852565b925050604061314887828801612852565b91505092959194509250565b7f4e487b7100000000000000000000000000000000000000000000000000000000600052602260045260246000fd5b6000600282049050600182168061319b57607f821691505b602082108114156131af576131ae613154565b5b50919050565b600060608201905081810360008301526131cf8186612907565b90506131de6020830185612db1565b6131eb6040830184612db1565b949350505050565b600061320661320184612f96565b612b12565b90508281526020810184848401111561322257613221612aad565b5b61322d8482856128c3565b509392505050565b600082601f83011261324a57613249612aa8565b5b815161325a8482602086016131f3565b91505092915050565b60006020828403121561327957613278612827565b5b600082015167ffffffffffffffff8111156132975761329661282c565b5b6132a384828501613235565b91505092915050565b7f436f6e746578743a20656d707479206f70636f64652073656c6563746f720000600082015250565b60006132e2601e83612de6565b91506132ed826132ac565b602082019050919050565b60006020820190508181036000830152613311816132d5565b9050919050565b600081905092915050565b600061332e82612ddb565b6133388185613318565b93506133488185602086016128c3565b80840191505092915050565b60006133608284613323565b915081905092915050565b7f436f6e746578743a206475706c6963617465206f70636f6465206e616d65206f60008201527f7220636f64650000000000000000000000000000000000000000000000000000602082015250565b60006133c7602683612de6565b91506133d28261336b565b604082019050919050565b600060208201905081810360008301526133f6816133ba565b9050919050565b7f4e487b7100000000000000000000000000000000000000000000000000000000600052601160045260246000fd5b600061343782612831565b915061344283612831565b9250827fffffffffffffffffffffffffffffffffffffffffffffffffffffffffffffffff03821115613477576134766133fd565b5b828201905092915050565b7f436f6e746578743a2061646472657373206973207a65726f0000000000000000600082015250565b60006134b8601883612de6565b91506134c382613482565b602082019050919050565b600060208201905081810360008301526134e7816134ab565b9050919050565b7f436f6e746578743a20736c6963696e67206f7574206f662072616e6765000000600082015250565b6000613524601d83612de6565b915061352f826134ee565b602082019050919050565b6000602082019050818103600083015261355381613517565b9050919050565b600080fd5b600080fd5b600080858511156135785761357761355a565b5b838611156135895761358861355f565b5b6001850283019150848603905094509492505050565b7f436f6e746578743a206475706c6963617465206f70636f6465206272616e6368600082015250565b60006135d5602083612de6565b91506135e08261359f565b602082019050919050565b60006020820190508181036000830152613604816135c8565b905091905056fea2646970667358221220da237d43bd1038001b999af44da5ab7454f9a1d3e4b665671e369bd3f5198cdf64736f6c634300080b0033608060405234801561001057600080fd5b5061064d806100206000396000f3fe608060405234801561001057600080fd5b50600436106100625760003560e01c80630c308a3b146100675780631f7b6d321461008557806352efea6e146100a357806389b09de7146100ad578063a4ece52c146100c9578063dc9031c4146100e7575b600080fd5b61006f610117565b60405161007c91906103af565b60405180910390f35b61008d610126565b60405161009a91906103e3565b60405180910390f35b6100ab610135565b005b6100c760048036038101906100c29190610453565b610144565b005b6100d16101aa565b6040516100de91906103af565b60405180910390f35b61010160048036038101906100fc91906104ac565b610205565b60405161010e91906103af565b60405180910390f35b6000610121610244565b905090565b60006101306102e6565b905090565b60008061014291906102f2565b565b6000819080600181540180825580915050600190039060005260206000200160009091909190916101000a81548173ffffffffffffffffffffffffffffffffffffffff021916908373ffffffffffffffffffffffffffffffffffffffff16021790555050565b6000806101b5610244565b905060008054806101c9576101c86104d9565b5b6001900381819060005260206000200160006101000a81549073ffffffffffffffffffffffffffffffffffffffff021916905590558091505090565b6000818154811061021557600080fd5b906000526020600020016000915054906101000a900473ffffffffffffffffffffffffffffffffffffffff1681565b60008061024f6102e6565b1161028f576040517f08c379a000000000000000000000000000000000000000000000000000000000815260040161028690610565565b60405180910390fd5b6000600161029b6102e6565b6102a591906105b4565b815481106102b6576102b56105e8565b5b9060005260206000200160009054906101000a900473ffffffffffffffffffffffffffffffffffffffff16905090565b60008080549050905090565b50805460008255906000526020600020908101906103109190610313565b50565b5b8082111561032c576000816000905550600101610314565b5090565b600073ffffffffffffffffffffffffffffffffffffffff82169050919050565b6000819050919050565b600061037561037061036b84610330565b610350565b610330565b9050919050565b60006103878261035a565b9050919050565b60006103998261037c565b9050919050565b6103a98161038e565b82525050565b60006020820190506103c460008301846103a0565b92915050565b6000819050919050565b6103dd816103ca565b82525050565b60006020820190506103f860008301846103d4565b92915050565b600080fd5b600061040e82610330565b9050919050565b600061042082610403565b9050919050565b61043081610415565b811461043b57600080fd5b50565b60008135905061044d81610427565b92915050565b600060208284031215610469576104686103fe565b5b60006104778482850161043e565b91505092915050565b610489816103ca565b811461049457600080fd5b50565b6000813590506104a681610480565b92915050565b6000602082840312156104c2576104c16103fe565b5b60006104d084828501610497565b91505092915050565b7f4e487b7100000000000000000000000000000000000000000000000000000000600052603160045260246000fd5b600082825260208201905092915050565b7f537461636b3a20737461636b20697320656d7074790000000000000000000000600082015250565b600061054f601583610508565b915061055a82610519565b602082019050919050565b6000602082019050818103600083015261057e81610542565b9050919050565b7f4e487b7100000000000000000000000000000000000000000000000000000000600052601160045260246000fd5b60006105bf826103ca565b91506105ca836103ca565b9250828210156105dd576105dc610585565b5b828203905092915050565b7f4e487b7100000000000000000000000000000000000000000000000000000000600052603260045260246000fdfea26469706673582212207cc2c030bc18b528de3a672d32196147153abd813ece5cfb3cbb226e48e7261464736f6c634300080b0033a2646970667358221220614b3af766374677e9b3ce3611724674a449fcf6b0e5bd0bb6d4e7efc104121d64736f6c634300080b0033","abi":[{"anonymous":false,"inputs":[{"indexed":false,"internalType":"address","name":"context","type":"address"}],"name":"NewContext","type":"event"},{"inputs":[],"name":"deployContext","outputs":[{"internalType":"address","name":"_contextAddr","type":"address"}],"stateMutability":"nonpayable","type":"function"},{"inputs":[{"internalType":"uint256","name":"","type":"uint256"}],"name":"deployedContexts","outputs":[{"internalType":"address","name":"","type":"address"}],"stateMutability":"view","type":"function"},{"inputs":[],"name":"getDeployedContextsLen","outputs":[{"internalType":"uint256","name":"","type":"uint256"}],"stateMutability":"view","type":"function"}]}