{"address":"0xB0d6afBF9448c99fCAb26CFE75DA56142802b871","bytecode":"0x608060405234801561001057600080fd5b5060405161001d9061005f565b604051809103906000f080158015610039573d6000803e3d6000fd5b50600080546001600160a01b0319166001600160a01b039290921691909117905561006d565b6135d58062001d0f83390190565b611c92806200007d6000396000f3fe608060405234801561001057600080fd5b50600436106101795760003560e01c80637d4bb2ec116100d9578063d261d86311610087578063d261d863146102be578063dff9ffc4146102d1578063ea80bd5514610192578063efedfec0146101c8578063f71c692a146102b6578063f9d1d3a2146102d9578063ffaeef8d146102e757600080fd5b80637d4bb2ec146102655780638d3ff47c1461026d57806394aef8e114610275578063b2dced0b146102a0578063be1d1211146102ae578063c35e0ec8146101a2578063cf7f7ff4146102b657600080fd5b8063363566461161013657806336356646146101e957806346b0a4f0146101f15780634a6cc8a6146101f9578063514110811461020c578063548e07c51461022a5780635981f3db1461023257806360fad1ed1461025d57600080fd5b806306a8f6c51461017e578063072fa70b146101925780630b91bffc1461019a57806316295b1c146101a25780632d423a6c146101c8578063357bf0fb146101d6575b600080fd5b61019061018c366004611492565b9055565b005b6101906102f3565b610190610305565b6101b56101b03660046114c7565b61044a565b6040519081526020015b60405180910390f35b61019061018c3660046114e0565b6101906101e4366004611517565b61045a565b610190610490565b6101906104a8565b610190610207366004611517565b6104b8565b61021a6101b03660046114c7565b60405190151581526020016101bf565b6101906104f4565b6101b5610240366004611600565b805160208183018101805160048252928201919093012091525481565b610190610498565b6101906104fc565b6101906104a0565b600054610288906001600160a01b031681565b6040516001600160a01b0390911681526020016101bf565b61019061018c36600461163d565b6101906105e4565b6101906107e2565b6101906102cc366004611662565b610850565b6101906108d5565b6102886101b03660046114c7565b6101906108dd565b5050565b6102fb6108e1565b610303610305565b565b600061030f610922565b805461031a906116b2565b80601f0160208091040260200160405190810160405280929190818152602001828054610346906116b2565b80156103935780601f1061036857610100808354040283529160200191610393565b820191906000526020600020905b81548152906001019060200180831161037657829003601f168201915b50506040516370121b7160e01b815273__$2641d0e8ea942d61d4fa904ca538dff49f$__946370121b7194506103ce93509150600401611745565b602060405180830381865af41580156103eb573d6000803e3d6000fd5b505050506040513d601f19601f8201168201806040525081019061040f9190611758565b6040519091506104269060019083906020016117e0565b604051602081830303815290604052600190805190602001906102ef929190611349565b6000610454825490565b92915050565b61048581604051806040016040528060098152602001681b1bd859131bd8d85b60ba1b81525061095a565b61048d6108e1565b50565b6104986108e1565b6104a06108e1565b6103036108e1565b6104b06108e1565b6103036104fc565b6104e4816040518060400160405280600a8152602001696c6f616452656d6f746560b01b81525061095a565b6104ec6108e1565b61048d6109e3565b6102f36108e1565b60006105bd604051806040016040528060048152602001637472756560e01b815250610526610922565b8054610531906116b2565b80601f016020809104026020016040519081016040528092919081815260200182805461055d906116b2565b80156105aa5780601f1061057f576101008083540402835291602001916105aa565b820191906000526020600020905b81548152906001019060200180831161058d57829003601f168201915b5050505050610b0290919063ffffffff16565b6105c85760006105cb565b60015b60f81b90506001816040516020016104269291906117f9565b60006105ee610922565b80546105f9906116b2565b80601f0160208091040260200160405190810160405280929190818152602001828054610625906116b2565b80156106725780601f1061064757610100808354040283529160200191610672565b820191906000526020600020905b81548152906001019060200180831161065557829003601f168201915b505050505090506000610683610922565b805461068e906116b2565b80601f01602080910402602001604051908101604052809291908181526020018280546106ba906116b2565b80156107075780601f106106dc57610100808354040283529160200191610707565b820191906000526020600020905b8154815290600101906020018083116106ea57829003601f168201915b505050505090506001805461071b906116b2565b905060048360405161072d919061181e565b9081526040516020918190038201812092909255610751916001916000910161183a565b60405160208183030381529060405260019080519060200190610775929190611349565b5060018054610783906116b2565b9050600482604051610795919061181e565b90815260405160209181900382018120929092556107b9916001916000910161183a565b604051602081830303815290604052600190805190602001906107dd929190611349565b505050565b600180546107ef906116b2565b905060046107fb610922565b604051610808919061185f565b908152604051602091819003820181209290925561082c916001916000910161183a565b6040516020818303038152906040526001908051906020019061048d929190611349565b6000805460405162823bd160e31b81526001600160a01b0390911690630411de8890610882908690869060040161186b565b6000604051808303816000875af11580156108a1573d6000803e3d6000fd5b505050506040513d6000823e601f3d908101601f191682016040526108c991908101906118bf565b90506107dd8382610b5b565b6104f46108e1565b6104905b60016108eb610922565b6040516020016108fb919061185f565b6040516020818303038152906040528051906020012060405160200161082c929190611997565b600380546000916002919083610937836119d2565b919050558154811061094b5761094b6119ed565b90600052602060002001905090565b6001826001600160a01b0316635bf3e5d783610974610922565b6040518363ffffffff1660e01b8152600401610991929190611a7a565b602060405180830381865afa1580156109ae573d6000803e3d6000fd5b505050506040513d601f19601f820116820180604052508101906109d29190611aa8565b6040516020016107b99291906117f9565b60016109ed610922565b80546109f8906116b2565b80601f0160208091040260200160405190810160405280929190818152602001828054610a24906116b2565b8015610a715780601f10610a4657610100808354040283529160200191610a71565b820191906000526020600020905b815481529060010190602001808311610a5457829003601f168201915b5050604051638e7e34d760e01b815273__$2641d0e8ea942d61d4fa904ca538dff49f$__94638e7e34d79450610aac93509150600401611745565b600060405180830381865af4158015610ac9573d6000803e3d6000fd5b505050506040513d6000823e601f3d908101601f19168201604052610af19190810190611ad2565b60405160200161082c929190611b1b565b600081604051602001610b15919061181e565b6040516020818303038152906040528051906020012083604051602001610b3c919061181e565b6040516020818303038152906040528051906020012014905092915050565b610b67600160006113cd565b60006003558051610b7f906002906020840190611407565b50604051631e4d922f60e31b8152600060048201526001600160a01b0383169063f26c917890602401600060405180830381600087803b158015610bc257600080fd5b505af1158015610bd6573d6000803e3d6000fd5b50505050816001600160a01b031663138ef1516040518163ffffffff1660e01b8152600401602060405180830381865afa158015610c18573d6000803e3d6000fd5b505050506040513d601f19601f82011682018060405250810190610c3c9190611b40565b6001600160a01b03166352efea6e6040518163ffffffff1660e01b8152600401600060405180830381600087803b158015610c7657600080fd5b505af1158015610c8a573d6000803e3d6000fd5b505050505b6002546003541015610ca957610ca482610d0c565b610c8f565b60405163bcf80c9d60e01b81526001600160a01b0383169063bcf80c9d90610cd690600190600401611b5d565b600060405180830381600087803b158015610cf057600080fd5b505af1158015610d04573d6000803e3d6000fd5b505050505050565b6000610d16610922565b90506000826001600160a01b031663f3f8d4e3836040518263ffffffff1660e01b8152600401610d469190611b5d565b602060405180830381865afa158015610d63573d6000803e3d6000fd5b505050506040513d601f19601f82011682018060405250810190610d879190611aa8565b90506001600160f81b03198116151580610e2e5750610e2e828054610dab906116b2565b80601f0160208091040260200160405190810160405280929190818152602001828054610dd7906116b2565b8015610e245780601f10610df957610100808354040283529160200191610e24565b820191906000526020600020905b815481529060010190602001808311610e0757829003601f168201915b505050505061131f565b82604051602001610e3f9190611b70565b60405160208183030381529060405290610e755760405162461bcd60e51b8152600401610e6c9190611745565b60405180910390fd5b50610e85828054610dab906116b2565b1561115e57600060018054610e99906116b2565b90509050600060018054610eac906116b2565b80601f0160208091040260200160405190810160405280929190818152602001828054610ed8906116b2565b8015610f255780601f10610efa57610100808354040283529160200191610f25565b820191906000526020600020905b815481529060010190602001808311610f0857829003601f168201915b505050505073__$54268a2ccf5b28930bb1a8a55944723b0b$__63e004139690916000600488604051610f58919061185f565b908152604051908190036020018120546001600160e01b031960e086901b168252610f87939291600401611bb2565b600060405180830381865af4158015610fa4573d6000803e3d6000fd5b505050506040513d6000823e601f3d908101601f19168201604052610fcc9190810190611ad2565b9050600060018054610fdd906116b2565b80601f0160208091040260200160405190810160405280929190818152602001828054611009906116b2565b80156110565780601f1061102b57610100808354040283529160200191611056565b820191906000526020600020905b81548152906001019060200180831161103957829003601f168201915b505050505073__$54268a2ccf5b28930bb1a8a55944723b0b$__63e00413969091600488604051611087919061185f565b90815260200160405180910390205460026110a29190611bd7565b600180546110af906116b2565b6040516001600160e01b031960e087901b1681526110d294939250600401611bb2565b600060405180830381865af41580156110ef573d6000803e3d6000fd5b505050506040513d6000823e601f3d908101601f191682016040526111179190810190611ad2565b9050818360f01b8260405160200161113193929190611bef565b60405160208183030381529060405260019080519060200190611155929190611349565b50505050505050565b6001816040516020016111729291906117f9565b60405160208183030381529060405260019080519060200190611196929190611349565b50604051633cb9ceff60e01b81526000906001600160a01b03851690633cb9ceff906111c6908690600401611b5d565b602060405180830381865afa1580156111e3573d6000803e3d6000fd5b505050506040513d601f19601f820116820180604052508101906112079190611c32565b90506001600160e01b0319811615611319576040516001600160a01b03851660248201526000903090839060440160408051601f198184030181529181526020820180516001600160e01b03166001600160e01b0319909416939093179092529051611273919061181e565b600060405180830381855af49150503d80600081146112ae576040519150601f19603f3d011682016040523d82523d6000602084013e6112b3565b606091505b50509050806113175760405162461bcd60e51b815260206004820152602a60248201527f5061727365723a2064656c656761746563616c6c20746f2061736d53656c65636044820152691d1bdc8819985a5b195960b21b6064820152608401610e6c565b505b50505050565b600080600483604051611332919061181e565b908152602001604051809103902054119050919050565b828054611355906116b2565b90600052602060002090601f01602090048101928261137757600085556113bd565b82601f1061139057805160ff19168380011785556113bd565b828001600101855582156113bd579182015b828111156113bd5782518255916020019190600101906113a2565b506113c9929150611460565b5090565b5080546113d9906116b2565b6000825580601f106113e9575050565b601f01602090049060005260206000209081019061048d9190611460565b828054828255906000526020600020908101928215611454579160200282015b828111156114545782518051611444918491602090910190611349565b5091602001919060010190611427565b506113c9929150611475565b5b808211156113c95760008155600101611461565b808211156113c957600061148982826113cd565b50600101611475565b600080604083850312156114a557600080fd5b82359150602083013580151581146114bc57600080fd5b809150509250929050565b6000602082840312156114d957600080fd5b5035919050565b600080604083850312156114f357600080fd5b50508035926020909101359150565b6001600160a01b038116811461048d57600080fd5b60006020828403121561152957600080fd5b813561153481611502565b9392505050565b634e487b7160e01b600052604160045260246000fd5b604051601f8201601f1916810167ffffffffffffffff8111828210171561157a5761157a61153b565b604052919050565b600067ffffffffffffffff82111561159c5761159c61153b565b50601f01601f191660200190565b600082601f8301126115bb57600080fd5b81356115ce6115c982611582565b611551565b8181528460208386010111156115e357600080fd5b816020850160208301376000918101602001919091529392505050565b60006020828403121561161257600080fd5b813567ffffffffffffffff81111561162957600080fd5b611635848285016115aa565b949350505050565b6000806040838503121561165057600080fd5b8235915060208301356114bc81611502565b6000806040838503121561167557600080fd5b823561168081611502565b9150602083013567ffffffffffffffff81111561169c57600080fd5b6116a8858286016115aa565b9150509250929050565b600181811c908216806116c657607f821691505b602082108114156116e757634e487b7160e01b600052602260045260246000fd5b50919050565b60005b838110156117085781810151838201526020016116f0565b838111156113195750506000910152565b600081518084526117318160208601602086016116ed565b601f01601f19169290920160200192915050565b6020815260006115346020830184611719565b60006020828403121561176a57600080fd5b5051919050565b6000815461177e816116b2565b6001828116801561179657600181146117a7576117d6565b60ff198416875282870194506117d6565b8560005260208060002060005b858110156117cd5781548a8201529084019082016117b4565b50505082870194505b5050505092915050565b60006117ec8285611771565b9283525050602001919050565b60006118058285611771565b6001600160f81b03199390931683525050600101919050565b600082516118308184602087016116ed565b9190910192915050565b60006118468285611771565b6001600160f01b03199390931683525050600201919050565b60006115348284611771565b6001600160a01b038316815260406020820181905260009061163590830184611719565b600061189d6115c984611582565b90508281528383830111156118b157600080fd5b6115348360208301846116ed565b600060208083850312156118d257600080fd5b825167ffffffffffffffff808211156118ea57600080fd5b818501915085601f8301126118fe57600080fd5b8151818111156119105761191061153b565b8060051b61191f858201611551565b918252838101850191858101908984111561193957600080fd5b86860192505b8383101561198a578251858111156119575760008081fd5b8601603f81018b136119695760008081fd5b61197a8b898301516040840161188f565b835250918601919086019061193f565b9998505050505050505050565b60006119a38285611771565b6001600160e01b03199390931683525050600401919050565b634e487b7160e01b600052601160045260246000fd5b60006000198214156119e6576119e66119bc565b5060010190565b634e487b7160e01b600052603260045260246000fd5b60008154611a10816116b2565b808552602060018381168015611a2d5760018114611a4157611a6f565b60ff19851688840152604088019550611a6f565b866000528260002060005b85811015611a675781548a8201860152908301908401611a4c565b890184019650505b505050505092915050565b604081526000611a8d6040830185611719565b8281036020840152611a9f8185611a03565b95945050505050565b600060208284031215611aba57600080fd5b81516001600160f81b03198116811461153457600080fd5b600060208284031215611ae457600080fd5b815167ffffffffffffffff811115611afb57600080fd5b8201601f81018413611b0c57600080fd5b6116358482516020840161188f565b6000611b278285611771565b8351611b378183602088016116ed565b01949350505050565b600060208284031215611b5257600080fd5b815161153481611502565b6020815260006115346020830184611a03565b682830b939b2b91d101160b91b81526000611b8e6009830184611771565b73111031b7b6b6b0b7321034b9903ab735b737bbb760611b81526014019392505050565b606081526000611bc56060830186611719565b60208301949094525060400152919050565b60008219821115611bea57611bea6119bc565b500190565b60008451611c018184602089016116ed565b6001600160f01b031985169083019081528351611c258160028401602088016116ed565b0160020195945050505050565b600060208284031215611c4457600080fd5b81516001600160e01b03198116811461153457600080fdfea264697066735822122060ab4ca696ffe512170b375127ce89314532c54e94e03cbd7d8e4b6f192e457664736f6c634300080b0033608060405234801561001057600080fd5b506135b5806100206000396000f3fe608060405234801561001057600080fd5b506004361061004c5760003560e01c80630411de8814610051578063092d94901461007a5780632a7b2c931461008d578063f0dada05146100a0575b600080fd5b61006461005f36600461265a565b6100c0565b6040516100719190612701565b60405180910390f35b610064610088366004612773565b610112565b61006461009b36600461285b565b610b7c565b6100b36100ae36600461285b565b610f96565b604051610071919061288f565b606060006040516100d090612458565b604051809103906000f0801580156100ec573d6000803e3d6000fd5b50905060006100fa84610b7c565b9050610107858284610112565b925050505b92915050565b606061012060016000612465565b60008080806003606080835b8a51811015610937578a8181518110610147576101476128a2565b6020026020010151925061015b85846110a4565b9450610168868585611178565b90965093506101778c846111db565b156101f057604051630f04745760e31b81526001600160a01b038d1690637823a2b8906101a890869060040161288f565b600060405180830381865afa1580156101c5573d6000803e3d6000fd5b505050506040513d6000823e601f3d908101601f191682016040526101ed91908101906128b8565b92505b6101fa8c8461123f565b15610519575b60008a6001600160a01b0316631f7b6d326040518163ffffffff1660e01b8152600401602060405180830381865afa158015610240573d6000803e3d6000fd5b505050506040513d601f19601f820116820180604052508101906102649190612939565b11801561040f57508b6001600160a01b031663ae9362518b6001600160a01b0316630c308a3b6040518163ffffffff1660e01b8152600401602060405180830381865afa1580156102b9573d6000803e3d6000fd5b505050506040513d601f19601f820116820180604052508101906102dd9190612952565b6001600160a01b03166389ea642f6040518163ffffffff1660e01b8152600401600060405180830381865afa15801561031a573d6000803e3d6000fd5b505050506040513d6000823e601f3d908101601f1916820160405261034291908101906128b8565b6040518263ffffffff1660e01b815260040161035e919061288f565b602060405180830381865afa15801561037b573d6000803e3d6000fd5b505050506040513d601f19601f8201168201806040525081019061039f9190612939565b60405163ae93625160e01b81526001600160a01b038e169063ae936251906103cb90879060040161288f565b602060405180830381865afa1580156103e8573d6000803e3d6000fd5b505050506040513d601f19601f8201168201806040525081019061040c9190612939565b11155b1561050a5760018a6001600160a01b031663a4ece52c6040518163ffffffff1660e01b81526004016020604051808303816000875af1158015610456573d6000803e3d6000fd5b505050506040513d601f19601f8201168201806040525081019061047a9190612952565b6001600160a01b03166389ea642f6040518163ffffffff1660e01b8152600401600060405180830381865afa1580156104b7573d6000803e3d6000fd5b505050506040513d6000823e601f3d908101601f191682016040526104df91908101906128b8565b8154600181018355600092835260209283902082516105049491909201920190612483565b50610200565b6105148a8461134f565b610925565b6040805180820190915260018152600560fb1b602082015261053c90849061143b565b1561054b576105148a8461134f565b6040805180820190915260018152602960f81b602082015261056e90849061143b565b156107c2575b61065e604051806040016040528060018152602001600560fb1b8152508b6001600160a01b0316630c308a3b6040518163ffffffff1660e01b8152600401602060405180830381865afa1580156105cf573d6000803e3d6000fd5b505050506040513d601f19601f820116820180604052508101906105f39190612952565b6001600160a01b03166389ea642f6040518163ffffffff1660e01b8152600401600060405180830381865afa158015610630573d6000803e3d6000fd5b505050506040513d6000823e601f3d908101601f1916820160405261065891908101906128b8565b9061143b565b6107585760018a6001600160a01b031663a4ece52c6040518163ffffffff1660e01b81526004016020604051808303816000875af11580156106a4573d6000803e3d6000fd5b505050506040513d601f19601f820116820180604052508101906106c89190612952565b6001600160a01b03166389ea642f6040518163ffffffff1660e01b8152600401600060405180830381865afa158015610705573d6000803e3d6000fd5b505050506040513d6000823e601f3d908101601f1916820160405261072d91908101906128b8565b8154600181018355600092835260209283902082516107529491909201920190612483565b50610574565b896001600160a01b031663a4ece52c6040518163ffffffff1660e01b81526004016020604051808303816000875af1158015610798573d6000803e3d6000fd5b505050506040513d601f19601f820116820180604052508101906107bc9190612952565b50610925565b6107cb83611494565b80156107d5575087155b80156107df575084155b1561081d576107ed866114e7565b60018054808201825560009190915283516107bc9160008051602061356083398151915201906020860190612483565b61082683611494565b8015610830575087155b80156108395750845b1561087257600180548082018255600091825284519196506107bc91600080516020613560833981519152909101906020860190612483565b60408051808201909152600481526366756e6360e01b602082015261089890849061143b565b156108a65760019750610925565b8780156108b1575086155b156108ce576108c283838a8a611638565b91995097509150610925565b8780156108d85750865b156108f357600096506108ec83838a611693565b9750610925565b60018054808201825560009190915283516109239160008051602061356083398151915201906020860190612483565b505b8061092f81612985565b91505061012c565b505b6000896001600160a01b0316631f7b6d326040518163ffffffff1660e01b8152600401602060405180830381865afa158015610979573d6000803e3d6000fd5b505050506040513d601f19601f8201168201806040525081019061099d9190612939565b1115610a99576001896001600160a01b031663a4ece52c6040518163ffffffff1660e01b81526004016020604051808303816000875af11580156109e5573d6000803e3d6000fd5b505050506040513d601f19601f82011682018060405250810190610a099190612952565b6001600160a01b03166389ea642f6040518163ffffffff1660e01b8152600401600060405180830381865afa158015610a46573d6000803e3d6000fd5b505050506040513d6000823e601f3d908101601f19168201604052610a6e91908101906128b8565b815460018101835560009283526020928390208251610a939491909201920190612483565b50610939565b6001805480602002602001604051908101604052809291908181526020016000905b82821015610b67578382906000526020600020018054610ada906129a0565b80601f0160208091040260200160405190810160405280929190818152602001828054610b06906129a0565b8015610b535780601f10610b2857610100808354040283529160200191610b53565b820191906000526020600020905b815481529060010190602001808311610b3657829003601f168201915b505050505081526020019060010190610abb565b505050509750505050505050505b9392505050565b6060610b8a60016000612465565b606060005b8351811015610e695760405163b455560960e01b815260009073__$2641d0e8ea942d61d4fa904ca538dff49f$__9063b455560990610bd490889086906004016129d5565b600060405180830381865af4158015610bf1573d6000803e3d6000fd5b505050506040513d6000823e601f3d908101601f19168201604052610c1991908101906128b8565b9050610c47604051806040016040528060018152602001607b60f81b8152508261143b90919063ffffffff16565b15610c525750610e57565b6040805180820190915260018152607d60f81b6020820152610c7590829061143b565b15610cc95760018054808201825560009190915260408051808201909152600380825262195b9960ea1b6020909201918252610cc292600080516020613560833981519152019190612483565b5050610e57565b6040805180820190915260018152600160fd1b6020820152610cec90829061143b565b80610d1557506040805180820190915260018152600560f91b6020820152610d1590829061143b565b80610d3e57506040805180820190915260018152600560fb1b6020820152610d3e90829061143b565b80610d6757506040805180820190915260018152602960f81b6020820152610d6790829061143b565b15610dc5576000610d76845190565b1115610dc0576001805480820182556000919091528351610dac9160008051602061356083398151915201906020860190612483565b506040518060200160405280600081525092505b610dd2565b610dcf8382611763565b92505b6040805180820190915260018152600560fb1b6020820152610df590829061143b565b80610e1e57506040805180820190915260018152602960f81b6020820152610e1e90829061143b565b15610e55576001805480820182556000919091528151610e539160008051602061356083398151915201906020840190612483565b505b505b80610e6181612985565b915050610b8f565b506000610e74825190565b1115610ebc576001805480820182556000919091528151610eaa9160008051602061356083398151915201906020840190612483565b50506040805160208101909152600081525b6001805480602002602001604051908101604052809291908181526020016000905b82821015610f8a578382906000526020600020018054610efd906129a0565b80601f0160208091040260200160405190810160405280929190818152602001828054610f29906129a0565b8015610f765780601f10610f4b57610100808354040283529160200191610f76565b820191906000526020600020905b815481529060010190602001808311610f5957829003601f168201915b505050505081526020019060010190610ede565b50505050915050919050565b606060008060008060605b865182101561109a5760405163b455560960e01b815273__$2641d0e8ea942d61d4fa904ca538dff49f$__9063b455560990610fe3908a9086906004016129d5565b600060405180830381865af4158015611000573d6000803e3d6000fd5b505050506040513d6000823e601f3d908101601f1916820160405261102891908101906128b8565b905081925084156110485761103f8483898461178f565b9550925061105b565b61105382888361190f565b965090945092505b8183111561106b57829150610fa1565b84156110835761107c6001836129f7565b9150610fa1565b61108d8682611763565b955061107c6001836129f7565b5050505050919050565b60408051808201909152600c81526b7472616e7366657246726f6d60a01b602082015282906110d490839061143b565b8061110b575060408051808201909152600f81526e39b2ba2637b1b0b62ab4b73a191a9b60891b602082015261110b90839061143b565b8061113a57506040805180820190915260078152660e6cadcc88ae8d60cb1b602082015261113a90839061143b565b8061116a57506040805180820190915260088152673a3930b739b332b960c11b602082015261116a90839061143b565b1561010c5750600192915050565b60408051808201909152600a8152696c6f616452656d6f746560b01b602082015283906003906111a990849061143b565b156111b357600191505b8180156111c05750600084115b156111d3576111d0600185612a0f565b90505b935093915050565b6040805160208101825260008082529151630f04745760e31b815261123791906001600160a01b03861690637823a2b89061121a90879060040161288f565b600060405180830381865afa158015610630573d6000803e3d6000fd5b159392505050565b6000805b836001600160a01b0316635f390d9b6040518163ffffffff1660e01b8152600401602060405180830381865afa158015611281573d6000803e3d6000fd5b505050506040513d601f19601f820116820180604052508101906112a59190612939565b81101561134557604051637146a48360e11b815260048101829052611324906001600160a01b0386169063e28d490690602401600060405180830381865afa1580156112f5573d6000803e3d6000fd5b505050506040513d6000823e601f3d908101601f1916820160405261131d91908101906128b8565b849061143b565b1561133357600191505061010c565b8061133d81612985565b915050611243565b5060009392505050565b600060405161135d90612507565b604051809103906000f080158015611379573d6000803e3d6000fd5b50604051633fe57b3360e11b81529091506001600160a01b03821690637fcaf666906113a990859060040161288f565b600060405180830381600087803b1580156113c357600080fd5b505af11580156113d7573d6000803e3d6000fd5b50506040516389b09de760e01b81526001600160a01b038481166004830152861692506389b09de79150602401600060405180830381600087803b15801561141e57600080fd5b505af1158015611432573d6000803e3d6000fd5b50505050505050565b60008160405160200161144e9190612a26565b60405160208183030381529060405280519060200120836040516020016114759190612a26565b6040516020818303038152906040528051906020012014905092915050565b600080826000815181106114aa576114aa6128a2565b01602001516001600160f81b031981169150603060f89190911c108015906114d75750603960f882901c11155b156114e157600191505b50919050565b60015415806115e257506115d7604051806040016040528060078152602001663ab4b73a191a9b60c91b81525060018080805490506115269190612a0f565b81548110611536576115366128a2565b90600052602060002001805461154b906129a0565b80601f0160208091040260200160405190810160405280929190818152602001828054611577906129a0565b80156115c45780601f10611599576101008083540402835291602001916115c4565b820191906000526020600020905b8154815290600101906020018083116115a757829003601f168201915b505050505061143b90919063ffffffff16565b1580156115e2575080155b1561163557600180548082018255600091909152604080518082019091526007808252663ab4b73a191a9b60c91b602090920191825261163392600080516020613560833981519152019190612483565b505b50565b600080606061166c6040518060400160405280600481526020016332b7323360e11b8152508861143b90919063ffffffff16565b1561167f57506000915082905084611689565b5083915060019050855b9450945094915050565b60006116c46040518060400160405280600481526020016332b7323360e11b8152508561143b90919063ffffffff16565b156116da576116d283611aa1565b506000610b75565b6040516370121b7160e01b815261175c9073__$2641d0e8ea942d61d4fa904ca538dff49f$__906370121b719061171590889060040161288f565b602060405180830381865af4158015611732573d6000803e3d6000fd5b505050506040513d601f19601f820116820180604052508101906117569190612939565b84611b1b565b5080610b75565b60608282604051602001611778929190612a42565b604051602081830303815290604052905092915050565b6000808560011480156117c057506040805180820190915260018152600560f91b60208201526117c090849061143b565b156117db576117d08560016129f7565b600091509150611906565b85600214801561180957506040805180820190915260018152601560f91b602082015261180990849061143b565b8015611824575061182461181e8660016129f7565b85611ddd565b156118ff57600073__$2641d0e8ea942d61d4fa904ca538dff49f$__63b4555609866118518960016129f7565b6040518363ffffffff1660e01b815260040161186e9291906129d5565b600060405180830381865af415801561188b573d6000803e3d6000fd5b505050506040513d6000823e601f3d908101601f191682016040526118b391908101906128b8565b90506118e1604051806040016040528060018152602001602f60f81b8152508261143b90919063ffffffff16565b156118fd576118f18660026129f7565b60009250925050611906565b505b5083905060015b94509492505050565b600080806119276119218760016129f7565b86611ddd565b15611a8e57600073__$2641d0e8ea942d61d4fa904ca538dff49f$__63b4555609876119548a60016129f7565b6040518363ffffffff1660e01b81526004016119719291906129d5565b600060405180830381865af415801561198e573d6000803e3d6000fd5b505050506040513d6000823e601f3d908101601f191682016040526119b691908101906128b8565b90506119e4604051806040016040528060018152602001602f60f81b8152508661143b90919063ffffffff16565b8015611a0e57506040805180820190915260018152602f60f81b6020820152611a0e90829061143b565b15611a2e576001611a208860026129f7565b600193509350935050611a98565b6040805180820190915260018152602f60f81b6020820152611a5190869061143b565b8015611a7b57506040805180820190915260018152601560f91b6020820152611a7b90829061143b565b15611a8c576002611a2088826129f7565b505b5060009150849050815b93509350939050565b6001805480820182556000919091526040805180820190915260048082526366756e6360e01b6020909201918252611aea92600080516020613560833981519152019190612483565b5060018054808201825560009190915281516116339160008051602061356083398151915201906020840190612483565b6000611b28836002612a71565b905060008311611b975760405162461bcd60e51b815260206004820152602f60248201527f50726570726f636573736f723a20616d6f756e74206f6620706172616d65746560448201526e072732063616e206e6f74206265203608c1b60648201526084015b60405180910390fd5b6000816001600160401b03811115611bb157611bb1612595565b604051908082528060200260200182016040528015611be457816020015b6060815260200190600190039081611bcf5790505b50600154909150821115611c545760405162461bcd60e51b815260206004820152603160248201527f50726570726f636573736f723a20696e76616c696420706172616d6574657273604482015270103337b9103a343290333ab731ba34b7b760791b6064820152608401611b8e565b600154600090611c65908490612a0f565b905060005b83811015611d51576001611c7e82846129f7565b81548110611c8e57611c8e6128a2565b906000526020600020018054611ca3906129a0565b80601f0160208091040260200160405190810160405280929190818152602001828054611ccf906129a0565b8015611d1c5780601f10611cf157610100808354040283529160200191611d1c565b820191906000526020600020905b815481529060010190602001808311611cff57829003601f168201915b5050505050838281518110611d3357611d336128a2565b60200260200101819052508080611d4990612985565b915050611c6a565b50611d5b83611ea3565b60005b8251811015611dc357611db181848381518110611d7d57611d7d6128a2565b602002602001015185846001611d9391906129f7565b81518110611da357611da36128a2565b602002602001015188611eef565b611dbc6002826129f7565b9050611d5e565b50611dcd85611fa3565b611dd684611aa1565b5050505050565b60405163b455560960e01b815260009073__$2641d0e8ea942d61d4fa904ca538dff49f$__9063b455560990611e1990859087906004016129d5565b600060405180830381865af4925050508015611e5757506040513d6000823e601f3d908101601f19168201604052611e5491908101906128b8565b60015b611e9957611e63612a90565b806308c379a01415611e8d5750611e78612aac565b80611e835750611e8f565b600091505061010c565b505b3d6000803e3d6000fd5b506001905061010c565b60005b81811015611633576001805480611ebf57611ebf612b35565b600190038181906000526020600020016000611edb9190612514565b905580611ee781612985565b915050611ea6565b60008080611efe600288612b61565b611f099060016129f7565b81526020808201929092526040016000208551909250611f2e91839190870190612483565b508251611f449060028301906020860190612483565b5081611f64611f54600288612b61565b611f5f9060016129f7565b61226b565b604051602001611f75929190612b75565b604051602081830303815290604052816001019080519060200190611f9b929190612483565b505050505050565b60005b818110156116335760008080611fbd8460016129f7565b8152602001908152602001600020604051806060016040529081600082018054611fe6906129a0565b80601f0160208091040260200160405190810160405280929190818152602001828054612012906129a0565b801561205f5780601f106120345761010080835404028352916020019161205f565b820191906000526020600020905b81548152906001019060200180831161204257829003601f168201915b50505050508152602001600182018054612078906129a0565b80601f01602080910402602001604051908101604052809291908181526020018280546120a4906129a0565b80156120f15780601f106120c6576101008083540402835291602001916120f1565b820191906000526020600020905b8154815290600101906020018083116120d457829003601f168201915b5050505050815260200160028201805461210a906129a0565b80601f0160208091040260200160405190810160405280929190818152602001828054612136906129a0565b80156121835780601f1061215857610100808354040283529160200191612183565b820191906000526020600020905b81548152906001019060200180831161216657829003601f168201915b50505050508152505090506121a5816000015182604001518360200151612370565b604080516080810182526000606082018181528252825180840184526001808252600360fc1b602083810191909152808501929092528451918201855282825293830152909181906121f89086906129f7565b815260208082019290925260400160002082518051919261221e92849290910190612483565b5060208281015180516122379260018501920190612483565b5060408201518051612253916002840191602090910190612483565b5090505050808061226390612985565b915050611fa6565b60608161228f5750506040805180820190915260018152600360fc1b602082015290565b8160005b81156122b957806122a381612985565b91506122b29050600a83612b61565b9150612293565b6000816001600160401b038111156122d3576122d3612595565b6040519080825280601f01601f1916602001820160405280156122fd576020820181803683370190505b5090505b841561236857612312600183612a0f565b915061231f600a86612bb1565b61232a9060306129f7565b60f81b81838151811061233f5761233f6128a2565b60200101906001600160f81b031916908160001a905350612361600a86612b61565b9450612301565b949350505050565b60018054808201825560009190915283516123a09160008051602061356083398151915201906020860190612483565b5060018054808201825560009190915282516123d19160008051602061356083398151915201906020850190612483565b5060018054808201825560009190915260408051808201909152600a8082526939b2ba2ab4b73a191a9b60b11b602090920191825261242192600080516020613560833981519152019190612483565b5060018054808201825560009190915281516124529160008051602061356083398151915201906020840190612483565b50505050565b61036a80612bc683390190565b5080546000825590600052602060002090810190611635919061254e565b82805461248f906129a0565b90600052602060002090601f0160209004810192826124b157600085556124f7565b82601f106124ca57805160ff19168380011785556124f7565b828001600101855582156124f7579182015b828111156124f75782518255916020019190600101906124dc565b5061250392915061256b565b5090565b61063080612f3083390190565b508054612520906129a0565b6000825580601f10612530575050565b601f016020900490600052602060002090810190611635919061256b565b808211156125035760006125628282612514565b5060010161254e565b5b80821115612503576000815560010161256c565b6001600160a01b038116811461163557600080fd5b634e487b7160e01b600052604160045260246000fd5b601f8201601f191681016001600160401b03811182821017156125d0576125d0612595565b6040525050565b60006001600160401b038211156125f0576125f0612595565b50601f01601f191660200190565b600082601f83011261260f57600080fd5b813561261a816125d7565b60405161262782826125ab565b82815285602084870101111561263c57600080fd5b82602086016020830137600092810160200192909252509392505050565b6000806040838503121561266d57600080fd5b823561267881612580565b915060208301356001600160401b0381111561269357600080fd5b61269f858286016125fe565b9150509250929050565b60005b838110156126c45781810151838201526020016126ac565b838111156124525750506000910152565b600081518084526126ed8160208601602086016126a9565b601f01601f19169290920160200192915050565b6000602080830181845280855180835260408601915060408160051b870101925083870160005b8281101561275657603f198886030184526127448583516126d5565b94509285019290850190600101612728565b5092979650505050505050565b803561276e81612580565b919050565b60008060006060848603121561278857600080fd5b833561279381612580565b92506020848101356001600160401b03808211156127b057600080fd5b818701915087601f8301126127c457600080fd5b8135818111156127d6576127d6612595565b8060051b6040516127e9868301826125ab565b9182528381018501918581018b84111561280257600080fd5b86860192505b8383101561283c578235858111156128205760008081fd5b61282e8d89838a01016125fe565b825250918601918601612808565b5080975050505050505061285260408501612763565b90509250925092565b60006020828403121561286d57600080fd5b81356001600160401b0381111561288357600080fd5b612368848285016125fe565b602081526000610b7560208301846126d5565b634e487b7160e01b600052603260045260246000fd5b6000602082840312156128ca57600080fd5b81516001600160401b038111156128e057600080fd5b8201601f810184136128f157600080fd5b80516128fc816125d7565b60405161290982826125ab565b82815286602084860101111561291e57600080fd5b61292f8360208301602087016126a9565b9695505050505050565b60006020828403121561294b57600080fd5b5051919050565b60006020828403121561296457600080fd5b8151610b7581612580565b634e487b7160e01b600052601160045260246000fd5b60006000198214156129995761299961296f565b5060010190565b600181811c908216806129b457607f821691505b602082108114156114e157634e487b7160e01b600052602260045260246000fd5b6040815260006129e860408301856126d5565b90508260208301529392505050565b60008219821115612a0a57612a0a61296f565b500190565b600082821015612a2157612a2161296f565b500390565b60008251612a388184602087016126a9565b9190910192915050565b60008351612a548184602088016126a9565b835190830190612a688183602088016126a9565b01949350505050565b6000816000190483118215151615612a8b57612a8b61296f565b500290565b600060033d1115612aa95760046000803e5060005160e01c5b90565b600060443d1015612aba5790565b6040516003193d81016004833e81513d6001600160401b038160248401118184111715612ae957505050505090565b8285019150815181811115612b015750505050505090565b843d8701016020828501011115612b1b5750505050505090565b612b2a602082860101876125ab565b509095945050505050565b634e487b7160e01b600052603160045260246000fd5b634e487b7160e01b600052601260045260246000fd5b600082612b7057612b70612b4b565b500490565b60008351612b878184602088016126a9565b605f60f81b9083019081528351612ba58160018401602088016126a9565b01600101949350505050565b600082612bc057612bc0612b4b565b50069056fe608060405234801561001057600080fd5b5061034a806100206000396000f3fe608060405234801561001057600080fd5b50600436106100625760003560e01c80630c308a3b146100675780631f7b6d321461008c57806352efea6e1461009d57806389b09de7146100a7578063a4ece52c14610104578063dc9031c41461010c575b600080fd5b61006f61011f565b6040516001600160a01b0390911681526020015b60405180910390f35b600054604051908152602001610083565b6100a561012e565b005b6100a56100b536600461027a565b600080546001810182559080527f290decd9548b62a8d60345a988386fc84ba6bc95484008f6362f93160ef3e5630180546001600160a01b0319166001600160a01b0392909216919091179055565b61006f61013b565b61006f61011a3660046102aa565b610180565b60006101296101aa565b905090565b610139600080610240565b565b6000806101466101aa565b90506000805480610159576101596102c3565b600082815260209020810160001990810180546001600160a01b0319169055019055919050565b6000818154811061019057600080fd5b6000918252602090912001546001600160a01b0316905081565b6000806101b660005490565b116101ff5760405162461bcd60e51b8152602060048201526015602482015274537461636b3a20737461636b20697320656d70747960581b604482015260640160405180910390fd5b6000600161020c60005490565b61021691906102d9565b81548110610226576102266102fe565b6000918252602090912001546001600160a01b0316919050565b508054600082559060005260206000209081019061025e9190610261565b50565b5b808211156102765760008155600101610262565b5090565b60006020828403121561028c57600080fd5b81356001600160a01b03811681146102a357600080fd5b9392505050565b6000602082840312156102bc57600080fd5b5035919050565b634e487b7160e01b600052603160045260246000fd5b6000828210156102f957634e487b7160e01b600052601160045260246000fd5b500390565b634e487b7160e01b600052603260045260246000fdfea26469706673582212203811a36372d872e4cd8cea1fd71d6259736f8805d30b838c328eea43fb135d4864736f6c634300080b0033608060405234801561001057600080fd5b50610610806100206000396000f3fe608060405234801561001057600080fd5b506004361061006d5760003560e01c806315dae03e1461007257806338cc48311461008e57806368895979146100ae5780637fcaf666146100c457806389ea642f146100d9578063d2282dc5146100ee578063e30081a014610101575b600080fd5b60005460ff166040516100859190610412565b60405180910390f35b610096610114565b6040516001600160a01b039091168152602001610085565b6100b6610191565b604051908152602001610085565b6100d76100d2366004610450565b610200565b005b6100e161022c565b6040516100859190610501565b6100d76100fc366004610556565b610324565b6100d761010f36600461056f565b610338565b6000600360005460ff16600381111561012f5761012f6103fc565b146101815760405162461bcd60e51b815260206004820152601c60248201527f537461636b3a20616464726573732074797065206d69736d617463680000000060448201526064015b60405180910390fd5b506003546001600160a01b031690565b6000600160005460ff1660038111156101ac576101ac6103fc565b146101f95760405162461bcd60e51b815260206004820152601c60248201527f537461636b3a2075696e743235362074797065206d69736d61746368000000006044820152606401610178565b5060015490565b8051610213906002906020840190610363565b50600080546002919060ff19166001835b021790555050565b6060600260005460ff166003811115610247576102476103fc565b146102945760405162461bcd60e51b815260206004820152601b60248201527f537461636b3a20737472696e672074797065206d69736d6174636800000000006044820152606401610178565b600280546102a19061059f565b80601f01602080910402602001604051908101604052809291908181526020018280546102cd9061059f565b801561031a5780601f106102ef5761010080835404028352916020019161031a565b820191906000526020600020905b8154815290600101906020018083116102fd57829003601f168201915b5050505050905090565b60018181556000805460ff19168280610224565b600380546001600160a01b0319166001600160a01b0383161781556000805460ff1916600183610224565b82805461036f9061059f565b90600052602060002090601f01602090048101928261039157600085556103d7565b82601f106103aa57805160ff19168380011785556103d7565b828001600101855582156103d7579182015b828111156103d75782518255916020019190600101906103bc565b506103e39291506103e7565b5090565b5b808211156103e357600081556001016103e8565b634e487b7160e01b600052602160045260246000fd5b602081016004831061043457634e487b7160e01b600052602160045260246000fd5b91905290565b634e487b7160e01b600052604160045260246000fd5b60006020828403121561046257600080fd5b813567ffffffffffffffff8082111561047a57600080fd5b818401915084601f83011261048e57600080fd5b8135818111156104a0576104a061043a565b604051601f8201601f19908116603f011681019083821181831017156104c8576104c861043a565b816040528281528760208487010111156104e157600080fd5b826020860160208301376000928101602001929092525095945050505050565b600060208083528351808285015260005b8181101561052e57858101830151858201604001528201610512565b81811115610540576000604083870101525b50601f01601f1916929092016040019392505050565b60006020828403121561056857600080fd5b5035919050565b60006020828403121561058157600080fd5b81356001600160a01b038116811461059857600080fd5b9392505050565b600181811c908216806105b357607f821691505b602082108114156105d457634e487b7160e01b600052602260045260246000fd5b5091905056fea26469706673582212209e67c8a7085b345d917296ef21c8655dd5455c977d0b79353a52880f16dc525464736f6c634300080b0033b10e2d527612073b26eecdfd717e6a320cf44b4afac2b0732d9fcbe2b7fa0cf6a264697066735822122067c2085d2b46a2c46c453fa95cf6f2320aac600e02e6a1ba710263d8b80f46e264736f6c634300080b0033","abi":[{"inputs":[],"stateMutability":"nonpayable","type":"constructor"},{"anonymous":false,"inputs":[{"indexed":false,"internalType":"bool","name":"result","type":"bool"}],"name":"ExecRes","type":"event"},{"anonymous":false,"inputs":[{"indexed":false,"internalType":"address","name":"txObj","type":"address"}],"name":"NewConditionalTx","type":"event"},{"inputs":[],"name":"asmBalanceOf","outputs":[],"stateMutability":"nonpayable","type":"function"},{"inputs":[],"name":"asmBool","outputs":[],"stateMutability":"nonpayable","type":"function"},{"inputs":[],"name":"asmFunc","outputs":[],"stateMutability":"nonpayable","type":"function"},{"inputs":[],"name":"asmIf","outputs":[],"stateMutability":"nonpayable","type":"function"},{"inputs":[],"name":"asmIfelse","outputs":[],"stateMutability":"nonpayable","type":"function"},{"inputs":[{"internalType":"contract IContext","name":"_ctx","type":"address"}],"name":"asmLoadLocal","outputs":[],"stateMutability":"nonpayable","type":"function"},{"inputs":[{"internalType":"contract IContext","name":"_ctx","type":"address"}],"name":"asmLoadRemote","outputs":[],"stateMutability":"nonpayable","type":"function"},{"inputs":[],"name":"asmSend","outputs":[],"stateMutability":"nonpayable","type":"function"},{"inputs":[],"name":"asmSetLocalBool","outputs":[],"stateMutability":"nonpayable","type":"function"},{"inputs":[],"name":"asmSetLocalUint256","outputs":[],"stateMutability":"nonpayable","type":"function"},{"inputs":[],"name":"asmSetUint256","outputs":[],"stateMutability":"nonpayable","type":"function"},{"inputs":[],"name":"asmTransfer","outputs":[],"stateMutability":"nonpayable","type":"function"},{"inputs":[],"name":"asmTransferFrom","outputs":[],"stateMutability":"nonpayable","type":"function"},{"inputs":[],"name":"asmTransferFromVar","outputs":[],"stateMutability":"nonpayable","type":"function"},{"inputs":[],"name":"asmTransferVar","outputs":[],"stateMutability":"nonpayable","type":"function"},{"inputs":[],"name":"asmUint256","outputs":[],"stateMutability":"nonpayable","type":"function"},{"inputs":[{"internalType":"bytes32","name":"position","type":"bytes32"}],"name":"getStorageAddress","outputs":[{"internalType":"address","name":"data","type":"address"}],"stateMutability":"view","type":"function"},{"inputs":[{"internalType":"bytes32","name":"position","type":"bytes32"}],"name":"getStorageBool","outputs":[{"internalType":"bool","name":"data","type":"bool"}],"stateMutability":"view","type":"function"},{"inputs":[{"internalType":"bytes32","name":"position","type":"bytes32"}],"name":"getStorageBytes32","outputs":[{"internalType":"bytes32","name":"data","type":"bytes32"}],"stateMutability":"view","type":"function"},{"inputs":[{"internalType":"bytes32","name":"position","type":"bytes32"}],"name":"getStorageUint256","outputs":[{"internalType":"uint256","name":"data","type":"uint256"}],"stateMutability":"view","type":"function"},{"inputs":[{"internalType":"string","name":"","type":"string"}],"name":"labelPos","outputs":[{"internalType":"uint256","name":"","type":"uint256"}],"stateMutability":"view","type":"function"},{"inputs":[{"internalType":"contract IContext","name":"_ctx","type":"address"},{"internalType":"string","name":"_codeRaw","type":"string"}],"name":"parse","outputs":[],"stateMutability":"nonpayable","type":"function"},{"inputs":[],"name":"preprocessor","outputs":[{"internalType":"contract Preprocessor","name":"","type":"address"}],"stateMutability":"view","type":"function"},{"inputs":[{"internalType":"bytes32","name":"position","type":"bytes32"},{"internalType":"address","name":"data","type":"address"}],"name":"setStorageAddress","outputs":[],"stateMutability":"nonpayable","type":"function"},{"inputs":[{"internalType":"bytes32","name":"position","type":"bytes32"},{"internalType":"bool","name":"data","type":"bool"}],"name":"setStorageBool","outputs":[],"stateMutability":"nonpayable","type":"function"},{"inputs":[{"internalType":"bytes32","name":"position","type":"bytes32"},{"internalType":"bytes32","name":"data","type":"bytes32"}],"name":"setStorageBytes32","outputs":[],"stateMutability":"nonpayable","type":"function"},{"inputs":[{"internalType":"bytes32","name":"position","type":"bytes32"},{"internalType":"uint256","name":"data","type":"uint256"}],"name":"setStorageUint256","outputs":[],"stateMutability":"nonpayable","type":"function"}]}